{
  "_format": "hh-sol-artifact-1",
  "contractName": "votingContract",
  "sourceName": "contracts/votingContract.sol",
  "abi": [
    {
      "inputs": [],
      "stateMutability": "nonpayable",
      "type": "constructor"
    },
    {
      "inputs": [
        {
          "internalType": "address",
          "name": "owner",
          "type": "address"
        }
      ],
      "name": "OwnableInvalidOwner",
      "type": "error"
    },
    {
      "inputs": [
        {
          "internalType": "address",
          "name": "account",
          "type": "address"
        }
      ],
      "name": "OwnableUnauthorizedAccount",
      "type": "error"
    },
    {
      "anonymous": false,
      "inputs": [
        {
          "indexed": true,
          "internalType": "uint256",
          "name": "electionId",
          "type": "uint256"
        },
        {
          "indexed": true,
          "internalType": "uint256",
          "name": "candidateId",
          "type": "uint256"
        },
        {
          "indexed": false,
          "internalType": "string",
          "name": "name",
          "type": "string"
        }
      ],
      "name": "CandidateAdded",
      "type": "event"
    },
    {
      "anonymous": false,
      "inputs": [
        {
          "indexed": true,
          "internalType": "uint256",
          "name": "electionId",
          "type": "uint256"
        },
        {
          "indexed": true,
          "internalType": "uint256",
          "name": "candidateId",
          "type": "uint256"
        }
      ],
      "name": "CandidateRemoved",
      "type": "event"
    },
    {
      "anonymous": false,
      "inputs": [
        {
          "indexed": true,
          "internalType": "uint256",
          "name": "electionId",
          "type": "uint256"
        },
        {
          "indexed": false,
          "internalType": "string",
          "name": "name",
          "type": "string"
        },
        {
          "indexed": true,
          "internalType": "address",
          "name": "admin",
          "type": "address"
        },
        {
          "indexed": false,
          "internalType": "uint256",
          "name": "startTime",
          "type": "uint256"
        },
        {
          "indexed": false,
          "internalType": "uint256",
          "name": "endTime",
          "type": "uint256"
        }
      ],
      "name": "ElectionCreated",
      "type": "event"
    },
    {
      "anonymous": false,
      "inputs": [
        {
          "indexed": true,
          "internalType": "uint256",
          "name": "electionId",
          "type": "uint256"
        },
        {
          "indexed": true,
          "internalType": "address",
          "name": "winner",
          "type": "address"
        }
      ],
      "name": "ElectionEnded",
      "type": "event"
    },
    {
      "anonymous": false,
      "inputs": [
        {
          "indexed": true,
          "internalType": "uint256",
          "name": "electionId",
          "type": "uint256"
        }
      ],
      "name": "ElectionStarted",
      "type": "event"
    },
    {
      "anonymous": false,
      "inputs": [
        {
          "indexed": true,
          "internalType": "address",
          "name": "previousOwner",
          "type": "address"
        },
        {
          "indexed": true,
          "internalType": "address",
          "name": "newOwner",
          "type": "address"
        }
      ],
      "name": "OwnershipTransferred",
      "type": "event"
    },
    {
      "anonymous": false,
      "inputs": [
        {
          "indexed": true,
          "internalType": "uint256",
          "name": "electionId",
          "type": "uint256"
        },
        {
          "indexed": true,
          "internalType": "address",
          "name": "voterAddress",
          "type": "address"
        }
      ],
      "name": "VoterAuthorizationRevoked",
      "type": "event"
    },
    {
      "anonymous": false,
      "inputs": [
        {
          "indexed": true,
          "internalType": "uint256",
          "name": "electionId",
          "type": "uint256"
        },
        {
          "indexed": true,
          "internalType": "address",
          "name": "voterAddress",
          "type": "address"
        }
      ],
      "name": "VoterAuthorized",
      "type": "event"
    },
    {
      "anonymous": false,
      "inputs": [
        {
          "indexed": true,
          "internalType": "uint256",
          "name": "electionId",
          "type": "uint256"
        },
        {
          "indexed": true,
          "internalType": "address",
          "name": "voterAddress",
          "type": "address"
        },
        {
          "indexed": true,
          "internalType": "uint256",
          "name": "candidateId",
          "type": "uint256"
        }
      ],
      "name": "VoterVoteCast",
      "type": "event"
    },
    {
      "inputs": [
        {
          "internalType": "uint256",
          "name": "_electionId",
          "type": "uint256"
        },
        {
          "internalType": "string",
          "name": "_name",
          "type": "string"
        }
      ],
      "name": "addCandidate",
      "outputs": [],
      "stateMutability": "nonpayable",
      "type": "function"
    },
    {
      "inputs": [
        {
          "internalType": "uint256",
          "name": "_electionId",
          "type": "uint256"
        },
        {
          "internalType": "address",
          "name": "_voterAddress",
          "type": "address"
        }
      ],
      "name": "authorizeVoter",
      "outputs": [],
      "stateMutability": "nonpayable",
      "type": "function"
    },
    {
      "inputs": [
        {
          "internalType": "string",
          "name": "_name",
          "type": "string"
        },
        {
          "internalType": "uint256",
          "name": "_startTime",
          "type": "uint256"
        },
        {
          "internalType": "uint256",
          "name": "_endTime",
          "type": "uint256"
        }
      ],
      "name": "createElection",
      "outputs": [],
      "stateMutability": "nonpayable",
      "type": "function"
    },
    {
      "inputs": [
        {
          "internalType": "uint256",
          "name": "",
          "type": "uint256"
        }
      ],
      "name": "elections",
      "outputs": [
        {
          "internalType": "uint256",
          "name": "id",
          "type": "uint256"
        },
        {
          "internalType": "string",
          "name": "name",
          "type": "string"
        },
        {
          "internalType": "address",
          "name": "admin",
          "type": "address"
        },
        {
          "internalType": "uint256",
          "name": "startTime",
          "type": "uint256"
        },
        {
          "internalType": "uint256",
          "name": "endTime",
          "type": "uint256"
        },
        {
          "internalType": "bool",
          "name": "isActive",
          "type": "bool"
        },
        {
          "internalType": "bool",
          "name": "isCompleted",
          "type": "bool"
        },
        {
          "internalType": "uint256",
          "name": "candidatesCount",
          "type": "uint256"
        },
        {
          "internalType": "uint256",
          "name": "totalVotesCast",
          "type": "uint256"
        }
      ],
      "stateMutability": "view",
      "type": "function"
    },
    {
      "inputs": [
        {
          "internalType": "uint256",
          "name": "_electionId",
          "type": "uint256"
        }
      ],
      "name": "endElection",
      "outputs": [],
      "stateMutability": "nonpayable",
      "type": "function"
    },
    {
      "inputs": [
        {
          "internalType": "uint256",
          "name": "_electionId",
          "type": "uint256"
        }
      ],
      "name": "getAuthorizedVoters",
      "outputs": [
        {
          "internalType": "address[]",
          "name": "",
          "type": "address[]"
        }
      ],
      "stateMutability": "view",
      "type": "function"
    },
    {
      "inputs": [
        {
          "internalType": "uint256",
          "name": "_electionId",
          "type": "uint256"
        },
        {
          "internalType": "uint256",
          "name": "_candidateId",
          "type": "uint256"
        }
      ],
      "name": "getCandidate",
      "outputs": [
        {
          "internalType": "uint256",
          "name": "id",
          "type": "uint256"
        },
        {
          "internalType": "string",
          "name": "name",
          "type": "string"
        },
        {
          "internalType": "uint256",
          "name": "voteCount",
          "type": "uint256"
        },
        {
          "internalType": "bool",
          "name": "exists",
          "type": "bool"
        }
      ],
      "stateMutability": "view",
      "type": "function"
    },
    {
      "inputs": [],
      "name": "getDeployer",
      "outputs": [
        {
          "internalType": "address",
          "name": "",
          "type": "address"
        }
      ],
      "stateMutability": "view",
      "type": "function"
    },
    {
      "inputs": [
        {
          "internalType": "uint256",
          "name": "_electionId",
          "type": "uint256"
        }
      ],
      "name": "getElectionCandidateIds",
      "outputs": [
        {
          "internalType": "uint256[]",
          "name": "",
          "type": "uint256[]"
        }
      ],
      "stateMutability": "view",
      "type": "function"
    },
    {
      "inputs": [
        {
          "internalType": "uint256",
          "name": "_electionId",
          "type": "uint256"
        }
      ],
      "name": "getElectionDetails",
      "outputs": [
        {
          "internalType": "uint256",
          "name": "id",
          "type": "uint256"
        },
        {
          "internalType": "string",
          "name": "name",
          "type": "string"
        },
        {
          "internalType": "address",
          "name": "admin",
          "type": "address"
        },
        {
          "internalType": "uint256",
          "name": "startTime",
          "type": "uint256"
        },
        {
          "internalType": "uint256",
          "name": "endTime",
          "type": "uint256"
        },
        {
          "internalType": "bool",
          "name": "isActive",
          "type": "bool"
        },
        {
          "internalType": "bool",
          "name": "isCompleted",
          "type": "bool"
        },
        {
          "internalType": "uint256",
          "name": "candidatesCount",
          "type": "uint256"
        },
        {
          "internalType": "uint256",
          "name": "totalVotesCast",
          "type": "uint256"
        }
      ],
      "stateMutability": "view",
      "type": "function"
    },
    {
      "inputs": [],
      "name": "getElectionsCount",
      "outputs": [
        {
          "internalType": "uint256",
          "name": "",
          "type": "uint256"
        }
      ],
      "stateMutability": "view",
      "type": "function"
    },
    {
      "inputs": [
        {
          "internalType": "uint256",
          "name": "_electionId",
          "type": "uint256"
        },
        {
          "internalType": "address",
          "name": "_voterAddress",
          "type": "address"
        }
      ],
      "name": "getVoter",
      "outputs": [
        {
          "internalType": "bool",
          "name": "authorized",
          "type": "bool"
        },
        {
          "internalType": "bool",
          "name": "voted",
          "type": "bool"
        },
        {
          "internalType": "uint256",
          "name": "candidateIdVotedFor",
          "type": "uint256"
        }
      ],
      "stateMutability": "view",
      "type": "function"
    },
    {
      "inputs": [],
      "name": "nextElectionId",
      "outputs": [
        {
          "internalType": "uint256",
          "name": "",
          "type": "uint256"
        }
      ],
      "stateMutability": "view",
      "type": "function"
    },
    {
      "inputs": [],
      "name": "owner",
      "outputs": [
        {
          "internalType": "address",
          "name": "",
          "type": "address"
        }
      ],
      "stateMutability": "view",
      "type": "function"
    },
    {
      "inputs": [
        {
          "internalType": "uint256",
          "name": "_electionId",
          "type": "uint256"
        },
        {
          "internalType": "uint256",
          "name": "_candidateId",
          "type": "uint256"
        }
      ],
      "name": "removeCandidate",
      "outputs": [],
      "stateMutability": "nonpayable",
      "type": "function"
    },
    {
      "inputs": [],
      "name": "renounceOwnership",
      "outputs": [],
      "stateMutability": "nonpayable",
      "type": "function"
    },
    {
      "inputs": [
        {
          "internalType": "uint256",
          "name": "_electionId",
          "type": "uint256"
        },
        {
          "internalType": "address",
          "name": "_voterAddress",
          "type": "address"
        }
      ],
      "name": "revokeVoterAuthorization",
      "outputs": [],
      "stateMutability": "nonpayable",
      "type": "function"
    },
    {
      "inputs": [
        {
          "internalType": "uint256",
          "name": "_electionId",
          "type": "uint256"
        }
      ],
      "name": "startElection",
      "outputs": [],
      "stateMutability": "nonpayable",
      "type": "function"
    },
    {
      "inputs": [
        {
          "internalType": "address",
          "name": "newOwner",
          "type": "address"
        }
      ],
      "name": "transferOwnership",
      "outputs": [],
      "stateMutability": "nonpayable",
      "type": "function"
    },
    {
      "inputs": [
        {
          "internalType": "uint256",
          "name": "_electionId",
          "type": "uint256"
        },
        {
          "internalType": "uint256",
          "name": "_candidateId",
          "type": "uint256"
        }
      ],
      "name": "vote",
      "outputs": [],
      "stateMutability": "nonpayable",
      "type": "function"
    }
  ],
  "bytecode": "0x608060405234801561001057600080fd5b50338061003757604051631e4fbdf760e01b81526000600482015260240160405180910390fd5b6100408161005d565b506001600281905580546001600160a01b031916331790556100ad565b600080546001600160a01b038381166001600160a01b0319831681178455604051919092169283917f8be0079c531659141344cd1fd0a4f28419497f9722a3daafe3b4186f6b6457e09190a35050565b611fd1806100bc6000396000f3fe608060405234801561001057600080fd5b506004361061012c5760003560e01c80638da5cb5b116100ad578063c11d446011610071578063c11d4460146102ee578063f2fde38b14610301578063f49a7a1714610314578063f604992414610327578063fa901afa1461033a57600080fd5b80638da5cb5b146102445780638f47b146146102555780639c98bcbb146102c0578063b1bb6ec3146102d3578063b384abef146102db57600080fd5b80636d32dc4b116100f45780636d32dc4b146101d1578063715018a6146101e457806372630531146101ec57806378df06cb14610211578063874a72c11461023157600080fd5b80631750a3d01461013157806330f31fde146101465780634bd464481461016f5780635313837b146101925780635e6fef01146101a9575b600080fd5b61014461013f366004611a6f565b61034d565b005b610159610154366004611abb565b610587565b6040516101669190611ad4565b60405180910390f35b61018261017d366004611b18565b6105ec565b6040516101669493929190611b80565b61019b60025481565b604051908152602001610166565b6101bc6101b7366004611abb565b6106cc565b60405161016699989796959493929190611bb1565b6101446101df366004611abb565b6107ae565b6101446108e5565b6001546001600160a01b03165b6040516001600160a01b039091168152602001610166565b61022461021f366004611abb565b6108f9565b6040516101669190611c0f565b61014461023f366004611c6c565b610967565b6000546001600160a01b03166101f9565b6102a3610263366004611c6c565b60009182526003602090815260408084206001600160a01b03939093168452600a90920190529020805460019091015460ff808316936101009093041691565b604080519315158452911515602084015290820152606001610166565b6101446102ce366004611abb565b610b7a565b61019b610d40565b6101446102e9366004611b18565b610d56565b6101446102fc366004611c6c565b610fa0565b61014461030f366004611c98565b6113a7565b610144610322366004611cba565b6113e5565b6101bc610335366004611abb565b611596565b610144610348366004611b18565b6116a9565b60008381526003602052604090206002015483906001600160a01b031633146103915760405162461bcd60e51b815260040161038890611d0b565b60405180910390fd5b6000848152600360205260409020600581015460ff16156104085760405162461bcd60e51b815260206004820152602b60248201527f43616e6e6f74206164642063616e6469646174657320746f20616e206163746960448201526a3b329032b632b1ba34b7b760a91b6064820152608401610388565b6005810154610100900460ff16156104785760405162461bcd60e51b815260206004820152602d60248201527f43616e6e6f74206164642063616e6469646174657320746f206120636f6d706c60448201526c32ba32b21032b632b1ba34b7b760991b6064820152608401610388565b826104c55760405162461bcd60e51b815260206004820152601e60248201527f43616e646964617465206e616d652063616e6e6f7420626520656d70747900006044820152606401610388565b6006810180549060006104d783611d71565b9091555050600681015460008181526008830160205260409020818155600101610502858783611e29565b506000818152600883016020908152604080832060028101849055600301805460ff1916600190811790915560098601805491820181558452919092200182905551819087907fed8911b3df733b7d5f75724158e54478ea12e30f49c9d31b5261879f5b76586f906105779089908990611f13565b60405180910390a3505050505050565b6000818152600360209081526040918290206009018054835181840281018401909452808452606093928301828280156105e057602002820191906000526020600020905b8154815260200190600101908083116105cc575b50505050509050919050565b60008281526003602081815260408084208585526008810190925283208054600282015493820154600183018054606096889687969095909490939260ff90911690839061063990611da0565b80601f016020809104026020016040519081016040528092919081815260200182805461066590611da0565b80156106b25780601f10610687576101008083540402835291602001916106b2565b820191906000526020600020905b81548152906001019060200180831161069557829003601f168201915b505050505092509550955095509550505092959194509250565b600360205260009081526040902080546001820180549192916106ee90611da0565b80601f016020809104026020016040519081016040528092919081815260200182805461071a90611da0565b80156107675780601f1061073c57610100808354040283529160200191610767565b820191906000526020600020905b81548152906001019060200180831161074a57829003601f168201915b5050506002840154600385015460048601546005870154600688015460079098015496976001600160a01b039094169692955090935060ff80821693610100909204169189565b60008181526003602052604090206002015481906001600160a01b031633146107e95760405162461bcd60e51b815260040161038890611d0b565b6000828152600360205260409020600581015460ff161561084c5760405162461bcd60e51b815260206004820152601a60248201527f456c656374696f6e20697320616c7265616479206163746976650000000000006044820152606401610388565b6005810154610100900460ff16156108a65760405162461bcd60e51b815260206004820152601a60248201527f456c656374696f6e2068617320616c726561647920656e6465640000000000006044820152606401610388565b60058101805460ff1916600117905560405183907f159eee87222a0489c529f2153c26ad65d718f2cc33ebaa8d399d1dd5b39facaa90600090a2505050565b6108ed6119a9565b6108f760006119d6565b565b600081815260036020908152604091829020600b018054835181840281018401909452808452606093928301828280156105e057602002820191906000526020600020905b81546001600160a01b0316815260019091019060200180831161093e5750505050509050919050565b60008281526003602052604090206002015482906001600160a01b031633146109a25760405162461bcd60e51b815260040161038890611d0b565b6000838152600360205260409020600581015460ff1615610a1c5760405162461bcd60e51b815260206004820152602e60248201527f43616e6e6f7420617574686f72697a6520766f7465727320666f7220616e206160448201526d31ba34bb329032b632b1ba34b7b760911b6064820152608401610388565b6005810154610100900460ff1615610a8f5760405162461bcd60e51b815260206004820152603060248201527f43616e6e6f7420617574686f72697a6520766f7465727320666f72206120636f60448201526f36b83632ba32b21032b632b1ba34b7b760811b6064820152608401610388565b6001600160a01b0383166000908152600a8201602052604090205460ff1615610afa5760405162461bcd60e51b815260206004820152601b60248201527f566f74657220697320616c726561647920617574686f72697a656400000000006044820152606401610388565b6001600160a01b0383166000818152600a830160209081526040808320805461ffff191660019081178255908101849055600b860180549182018155845291832090910180546001600160a01b031916841790555186917f3472268c878450e0a658ae0f35954d9f22e16ae6e92cf9322237f8e6a50d982191a350505050565b60008181526003602052604090206002015481906001600160a01b03163314610bb55760405162461bcd60e51b815260040161038890611d0b565b6000828152600360205260409020600581015460ff16610c105760405162461bcd60e51b8152602060048201526016602482015275456c656374696f6e206973206e6f742061637469766560501b6044820152606401610388565b6005810154610100900460ff1615610c6a5760405162461bcd60e51b815260206004820152601a60248201527f456c656374696f6e2068617320616c726561647920656e6465640000000000006044820152606401610388565b60058101805461ffff191661010017905560008080805b6009850154811015610d01576000856009018281548110610ca457610ca4611f2f565b600091825260208083209091015480835260088901909152604090912060038101549192509060ff168015610cdc5750848160020154115b15610cec57806002015494508193505b50508080610cf990611d71565b915050610c81565b506040516001600160a01b0384169087907f82e7c3995e0a57d5e4f59cb69206614abd00f1631bf411d4ed7040004215401190600090a3505050505050565b60006001600254610d519190611f45565b905090565b6000828152600360209081526040808320338452600a8101909252909120600582015460ff16610dd45760405162461bcd60e51b815260206004820152602360248201527f456c656374696f6e206973206e6f7420616374697665206f722068617320656e60448201526219195960ea1b6064820152608401610388565b805460ff16610e3d5760405162461bcd60e51b815260206004820152602f60248201527f596f7520617265206e6f7420617574686f72697a656420746f20766f7465206960448201526e37103a3434b99032b632b1ba34b7b760891b6064820152608401610388565b8054610100900460ff1615610ea45760405162461bcd60e51b815260206004820152602760248201527f596f75206861766520616c726561647920766f74656420696e207468697320656044820152663632b1ba34b7b760c91b6064820152608401610388565b600083815260088301602052604090206003015460ff16610f1c5760405162461bcd60e51b815260206004820152602c60248201527f43616e64696461746520646f6573206e6f74206578697374206f72206861732060448201526b1899595b881c995b5bdd995960a21b6064820152608401610388565b60008381526008830160205260408120600201805491610f3b83611d71565b9091555050805461ff00191661010017815560018101839055600782018054906000610f6683611d71565b90915550506040518390339086907f16617c328498015e8ce3bacc2c5adbd8489f79e0f9df5e4c47e883ec8849426190600090a450505050565b60008281526003602052604090206002015482906001600160a01b03163314610fdb5760405162461bcd60e51b815260040161038890611d0b565b6000838152600360205260409020600581015460ff161561105a5760405162461bcd60e51b815260206004820152603360248201527f43616e6e6f74207265766f6b6520617574686f72697a6174696f6e2066726f6d6044820152721030b71030b1ba34bb329032b632b1ba34b7b760691b6064820152608401610388565b6005810154610100900460ff16156110d25760405162461bcd60e51b815260206004820152603560248201527f43616e6e6f74207265766f6b6520617574686f72697a6174696f6e2066726f6d60448201527410309031b7b6b83632ba32b21032b632b1ba34b7b760591b6064820152608401610388565b6001600160a01b0383166000908152600a8201602052604090205460ff1661113c5760405162461bcd60e51b815260206004820152601760248201527f566f746572206973206e6f7420617574686f72697a65640000000000000000006044820152606401610388565b6001600160a01b0383166000908152600a82016020526040902054610100900460ff16156111d25760405162461bcd60e51b815260206004820152603d60248201527f43616e6e6f74207265766f6b6520617574686f72697a6174696f6e20666f722060448201527f6120766f7465722077686f2068617320616c726561647920766f7465640000006064820152608401610388565b6001600160a01b0383166000908152600a820160205260408120805460ff19169055805b600b83015481101561130957846001600160a01b031683600b01828154811061122157611221611f2f565b6000918252602090912001546001600160a01b0316036112f757600b8301805461124d90600190611f45565b8154811061125d5761125d611f2f565b600091825260209091200154600b840180546001600160a01b03909216918390811061128b5761128b611f2f565b9060005260206000200160006101000a8154816001600160a01b0302191690836001600160a01b0316021790555082600b018054806112cc576112cc611f5e565b600082815260209020810160001990810180546001600160a01b031916905501905560019150611309565b8061130181611d71565b9150506111f6565b508061136a5760405162461bcd60e51b815260206004820152602a60248201527f566f7465722061646472657373206e6f7420666f756e6420696e20617574686f6044820152691c9a5e9959081b1a5cdd60b21b6064820152608401610388565b6040516001600160a01b0385169086907f8a28edbca5a1c2ecfc6a419c1eec5a165980bc3333dbdb72ca6bd2c97cb0ca3890600090a35050505050565b6113af6119a9565b6001600160a01b0381166113d957604051631e4fbdf760e01b815260006004820152602401610388565b6113e2816119d6565b50565b6113ed6119a9565b8181116114465760405162461bcd60e51b815260206004820152602160248201527f456e642074696d65206d7573742062652061667465722073746172742074696d6044820152606560f81b6064820152608401610388565b4282116114955760405162461bcd60e51b815260206004820181905260248201527f53746172742074696d65206d75737420626520696e20746865206675747572656044820152606401610388565b60025460008181526003602052604090209081556001016114b7848683611e29565b50600280546000908152600360208190526040808320840180546001600160a01b031916339081179091558454845281842090920186905583548352808320600401859055835483528083206005908101805460ff191690558454845281842001805461ff0019169055835483528083206006018390558354835280832060070192909255915490517fa5e02149a4075d8d4d589c9f35c661b296060ca0c8b64e0c8564728f9236867290611573908890889088908890611f74565b60405180910390a36002805490600061158b83611d71565b919050555050505050565b60008181526003602081905260408220805460028201549282015460048301546005840154600685015460078601546001870180546060998b998a998a998a998a998a998a999598949794966001600160a01b0316959394929360ff808416946101009094041692889061160990611da0565b80601f016020809104026020016040519081016040528092919081815260200182805461163590611da0565b80156116825780601f1061165757610100808354040283529160200191611682565b820191906000526020600020905b81548152906001019060200180831161166557829003601f168201915b50505050509750995099509950995099509950995099509950509193959799909294969850565b60008281526003602052604090206002015482906001600160a01b031633146116e45760405162461bcd60e51b815260040161038890611d0b565b6000838152600360205260409020600581015460ff16156117605760405162461bcd60e51b815260206004820152603060248201527f43616e6e6f742072656d6f76652063616e646964617465732066726f6d20616e60448201526f1030b1ba34bb329032b632b1ba34b7b760811b6064820152608401610388565b6005810154610100900460ff16156117d55760405162461bcd60e51b815260206004820152603260248201527f43616e6e6f742072656d6f76652063616e646964617465732066726f6d20612060448201527131b7b6b83632ba32b21032b632b1ba34b7b760711b6064820152608401610388565b600083815260088201602052604090206003015460ff166118385760405162461bcd60e51b815260206004820152601860248201527f43616e64696461746520646f6573206e6f7420657869737400000000000000006044820152606401610388565b60008381526008820160205260408120600301805460ff19169055805b6009830154811015611919578483600901828154811061187757611877611f2f565b9060005260206000200154036119075760098301805461189990600190611f45565b815481106118a9576118a9611f2f565b90600052602060002001548360090182815481106118c9576118c9611f2f565b600091825260209091200155600983018054806118e8576118e8611f5e565b6001900381819060005260206000200160009055905560019150611919565b8061191181611d71565b915050611855565b50806119755760405162461bcd60e51b815260206004820152602560248201527f43616e646964617465204944206e6f7420666f756e6420696e20616374697665604482015264081b1a5cdd60da1b6064820152608401610388565b604051849086907f7e1371fe87beaf1977d485876066445a77e554f414a828481e6b014c21e6aaf690600090a35050505050565b6000546001600160a01b031633146108f75760405163118cdaa760e01b8152336004820152602401610388565b600080546001600160a01b038381166001600160a01b0319831681178455604051919092169283917f8be0079c531659141344cd1fd0a4f28419497f9722a3daafe3b4186f6b6457e09190a35050565b60008083601f840112611a3857600080fd5b50813567ffffffffffffffff811115611a5057600080fd5b602083019150836020828501011115611a6857600080fd5b9250929050565b600080600060408486031215611a8457600080fd5b83359250602084013567ffffffffffffffff811115611aa257600080fd5b611aae86828701611a26565b9497909650939450505050565b600060208284031215611acd57600080fd5b5035919050565b6020808252825182820181905260009190848201906040850190845b81811015611b0c57835183529284019291840191600101611af0565b50909695505050505050565b60008060408385031215611b2b57600080fd5b50508035926020909101359150565b6000815180845260005b81811015611b6057602081850181015186830182015201611b44565b506000602082860101526020601f19601f83011685010191505092915050565b848152608060208201526000611b996080830186611b3a565b60408301949094525090151560609091015292915050565b60006101208b8352806020840152611bcb8184018c611b3a565b6001600160a01b039a909a16604084015250506060810196909652608086019490945291151560a0850152151560c084015260e08301526101009091015292915050565b6020808252825182820181905260009190848201906040850190845b81811015611b0c5783516001600160a01b031683529284019291840191600101611c2b565b80356001600160a01b0381168114611c6757600080fd5b919050565b60008060408385031215611c7f57600080fd5b82359150611c8f60208401611c50565b90509250929050565b600060208284031215611caa57600080fd5b611cb382611c50565b9392505050565b60008060008060608587031215611cd057600080fd5b843567ffffffffffffffff811115611ce757600080fd5b611cf387828801611a26565b90989097506020870135966040013595509350505050565b60208082526030908201527f4f6e6c792074686520656c656374696f6e2061646d696e2063616e207065726660408201526f37b936903a3434b99030b1ba34b7b71760811b606082015260800190565b634e487b7160e01b600052601160045260246000fd5b600060018201611d8357611d83611d5b565b5060010190565b634e487b7160e01b600052604160045260246000fd5b600181811c90821680611db457607f821691505b602082108103611dd457634e487b7160e01b600052602260045260246000fd5b50919050565b601f821115611e2457600081815260208120601f850160051c81016020861015611e015750805b601f850160051c820191505b81811015611e2057828155600101611e0d565b5050505b505050565b67ffffffffffffffff831115611e4157611e41611d8a565b611e5583611e4f8354611da0565b83611dda565b6000601f841160018114611e895760008515611e715750838201355b600019600387901b1c1916600186901b178355611ee3565b600083815260209020601f19861690835b82811015611eba5786850135825560209485019460019092019101611e9a565b5086821015611ed75760001960f88860031b161c19848701351681555b505060018560011b0183555b5050505050565b81835281816020850137506000828201602090810191909152601f909101601f19169091010190565b602081526000611f27602083018486611eea565b949350505050565b634e487b7160e01b600052603260045260246000fd5b81810381811115611f5857611f58611d5b565b92915050565b634e487b7160e01b600052603160045260246000fd5b606081526000611f88606083018688611eea565b602083019490945250604001529291505056fea264697066735822122030297b95055165874ec464278d617ea2f2a0e8b9bfa1e71d3badf0a8496dcf1464736f6c63430008150033",
  "linkReferences": {},
  "deployedLinkReferences": {}
}