{
  "_format": "hh-sol-artifact-1",
  "contractName": "votingContract",
  "sourceName": "contracts/votingContract.sol",
  "abi": [
    {
      "inputs": [],
      "stateMutability": "nonpayable",
      "type": "constructor"
    },
    {
      "anonymous": false,
      "inputs": [
        {
          "indexed": true,
          "internalType": "uint256",
          "name": "electionId",
          "type": "uint256"
        },
        {
          "indexed": true,
          "internalType": "uint256",
          "name": "candidateId",
          "type": "uint256"
        },
        {
          "indexed": false,
          "internalType": "string",
          "name": "name",
          "type": "string"
        }
      ],
      "name": "CandidateAdded",
      "type": "event"
    },
    {
      "anonymous": false,
      "inputs": [
        {
          "indexed": true,
          "internalType": "uint256",
          "name": "electionId",
          "type": "uint256"
        },
        {
          "indexed": false,
          "internalType": "string",
          "name": "name",
          "type": "string"
        },
        {
          "indexed": true,
          "internalType": "address",
          "name": "admin",
          "type": "address"
        },
        {
          "indexed": false,
          "internalType": "uint256",
          "name": "startTime",
          "type": "uint256"
        },
        {
          "indexed": false,
          "internalType": "uint256",
          "name": "endTime",
          "type": "uint256"
        }
      ],
      "name": "ElectionCreated",
      "type": "event"
    },
    {
      "anonymous": false,
      "inputs": [
        {
          "indexed": true,
          "internalType": "uint256",
          "name": "electionId",
          "type": "uint256"
        },
        {
          "indexed": false,
          "internalType": "string",
          "name": "name",
          "type": "string"
        },
        {
          "indexed": false,
          "internalType": "uint256",
          "name": "timestamp",
          "type": "uint256"
        }
      ],
      "name": "ElectionEnded",
      "type": "event"
    },
    {
      "anonymous": false,
      "inputs": [
        {
          "indexed": true,
          "internalType": "uint256",
          "name": "electionId",
          "type": "uint256"
        },
        {
          "indexed": false,
          "internalType": "string",
          "name": "name",
          "type": "string"
        },
        {
          "indexed": false,
          "internalType": "uint256",
          "name": "timestamp",
          "type": "uint256"
        }
      ],
      "name": "ElectionStarted",
      "type": "event"
    },
    {
      "anonymous": false,
      "inputs": [
        {
          "indexed": true,
          "internalType": "uint256",
          "name": "electionId",
          "type": "uint256"
        },
        {
          "indexed": true,
          "internalType": "address",
          "name": "voterAddress",
          "type": "address"
        },
        {
          "indexed": true,
          "internalType": "uint256",
          "name": "candidateId",
          "type": "uint256"
        }
      ],
      "name": "Voted",
      "type": "event"
    },
    {
      "anonymous": false,
      "inputs": [
        {
          "indexed": true,
          "internalType": "uint256",
          "name": "electionId",
          "type": "uint256"
        },
        {
          "indexed": true,
          "internalType": "address",
          "name": "voterAddress",
          "type": "address"
        }
      ],
      "name": "VoterAuthorized",
      "type": "event"
    },
    {
      "inputs": [
        {
          "internalType": "uint256",
          "name": "_electionId",
          "type": "uint256"
        },
        {
          "internalType": "string",
          "name": "_name",
          "type": "string"
        }
      ],
      "name": "addCandidate",
      "outputs": [],
      "stateMutability": "nonpayable",
      "type": "function"
    },
    {
      "inputs": [
        {
          "internalType": "uint256",
          "name": "_electionId",
          "type": "uint256"
        },
        {
          "internalType": "address",
          "name": "_voterAddress",
          "type": "address"
        }
      ],
      "name": "authorizeVoter",
      "outputs": [],
      "stateMutability": "nonpayable",
      "type": "function"
    },
    {
      "inputs": [
        {
          "internalType": "string",
          "name": "_name",
          "type": "string"
        },
        {
          "internalType": "uint256",
          "name": "_startTime",
          "type": "uint256"
        },
        {
          "internalType": "uint256",
          "name": "_endTime",
          "type": "uint256"
        }
      ],
      "name": "createElection",
      "outputs": [],
      "stateMutability": "nonpayable",
      "type": "function"
    },
    {
      "inputs": [],
      "name": "deployer",
      "outputs": [
        {
          "internalType": "address",
          "name": "",
          "type": "address"
        }
      ],
      "stateMutability": "view",
      "type": "function"
    },
    {
      "inputs": [
        {
          "internalType": "uint256",
          "name": "",
          "type": "uint256"
        }
      ],
      "name": "elections",
      "outputs": [
        {
          "internalType": "uint256",
          "name": "id",
          "type": "uint256"
        },
        {
          "internalType": "string",
          "name": "name",
          "type": "string"
        },
        {
          "internalType": "address",
          "name": "admin",
          "type": "address"
        },
        {
          "internalType": "uint256",
          "name": "startTime",
          "type": "uint256"
        },
        {
          "internalType": "uint256",
          "name": "endTime",
          "type": "uint256"
        },
        {
          "internalType": "bool",
          "name": "isActive",
          "type": "bool"
        },
        {
          "internalType": "bool",
          "name": "isCompleted",
          "type": "bool"
        },
        {
          "internalType": "uint256",
          "name": "candidatesCount",
          "type": "uint256"
        },
        {
          "internalType": "uint256",
          "name": "totalVotesCast",
          "type": "uint256"
        }
      ],
      "stateMutability": "view",
      "type": "function"
    },
    {
      "inputs": [
        {
          "internalType": "uint256",
          "name": "_electionId",
          "type": "uint256"
        }
      ],
      "name": "endElection",
      "outputs": [],
      "stateMutability": "nonpayable",
      "type": "function"
    },
    {
      "inputs": [
        {
          "internalType": "uint256",
          "name": "_electionId",
          "type": "uint256"
        },
        {
          "internalType": "uint256",
          "name": "_candidateId",
          "type": "uint256"
        }
      ],
      "name": "getCandidate",
      "outputs": [
        {
          "internalType": "uint256",
          "name": "",
          "type": "uint256"
        },
        {
          "internalType": "string",
          "name": "",
          "type": "string"
        },
        {
          "internalType": "uint256",
          "name": "",
          "type": "uint256"
        }
      ],
      "stateMutability": "view",
      "type": "function"
    },
    {
      "inputs": [
        {
          "internalType": "uint256",
          "name": "_electionId",
          "type": "uint256"
        }
      ],
      "name": "getElectionDetails",
      "outputs": [
        {
          "internalType": "uint256",
          "name": "id",
          "type": "uint256"
        },
        {
          "internalType": "string",
          "name": "name",
          "type": "string"
        },
        {
          "internalType": "address",
          "name": "adminAddr",
          "type": "address"
        },
        {
          "internalType": "uint256",
          "name": "startTime",
          "type": "uint256"
        },
        {
          "internalType": "uint256",
          "name": "endTime",
          "type": "uint256"
        },
        {
          "internalType": "bool",
          "name": "isActive",
          "type": "bool"
        },
        {
          "internalType": "bool",
          "name": "isCompleted",
          "type": "bool"
        },
        {
          "internalType": "uint256",
          "name": "candidatesCount",
          "type": "uint256"
        },
        {
          "internalType": "uint256",
          "name": "totalVotesCast",
          "type": "uint256"
        }
      ],
      "stateMutability": "view",
      "type": "function"
    },
    {
      "inputs": [],
      "name": "getElectionsCount",
      "outputs": [
        {
          "internalType": "uint256",
          "name": "",
          "type": "uint256"
        }
      ],
      "stateMutability": "view",
      "type": "function"
    },
    {
      "inputs": [
        {
          "internalType": "uint256",
          "name": "_electionId",
          "type": "uint256"
        },
        {
          "internalType": "address",
          "name": "_voterAddress",
          "type": "address"
        }
      ],
      "name": "getVoter",
      "outputs": [
        {
          "internalType": "bool",
          "name": "authorized",
          "type": "bool"
        },
        {
          "internalType": "bool",
          "name": "voted",
          "type": "bool"
        },
        {
          "internalType": "uint256",
          "name": "candidateIdVotedFor",
          "type": "uint256"
        }
      ],
      "stateMutability": "view",
      "type": "function"
    },
    {
      "inputs": [],
      "name": "nextElectionId",
      "outputs": [
        {
          "internalType": "uint256",
          "name": "",
          "type": "uint256"
        }
      ],
      "stateMutability": "view",
      "type": "function"
    },
    {
      "inputs": [
        {
          "internalType": "uint256",
          "name": "_electionId",
          "type": "uint256"
        }
      ],
      "name": "startElection",
      "outputs": [],
      "stateMutability": "nonpayable",
      "type": "function"
    },
    {
      "inputs": [
        {
          "internalType": "uint256",
          "name": "_electionId",
          "type": "uint256"
        },
        {
          "internalType": "uint256",
          "name": "_candidateId",
          "type": "uint256"
        }
      ],
      "name": "vote",
      "outputs": [],
      "stateMutability": "nonpayable",
      "type": "function"
    }
  ],
  "bytecode": "0x608060405234801561001057600080fd5b50600080546001600160a01b0319163317905560018055611840806100366000396000f3fe608060405234801561001057600080fd5b50600436106100cf5760003560e01c80638f47b1461161008c578063b384abef11610066578063b384abef146101c4578063d5f39488146101d7578063f49a7a1714610202578063f60499241461021557600080fd5b80638f47b146146101795780639c98bcbb146101a9578063b1bb6ec3146101bc57600080fd5b80631750a3d0146100d45780634bd46448146100e95780635313837b146101145780635e6fef011461012b5780636d32dc4b14610153578063874a72c114610166575b600080fd5b6100e76100e2366004611305565b610228565b005b6100fc6100f736600461134c565b610425565b60405161010b939291906113b4565b60405180910390f35b61011d60015481565b60405190815260200161010b565b61013e6101393660046113dd565b610551565b60405161010b999897969594939291906113f6565b6100e76101613660046113dd565b610633565b6100e7610174366004611454565b610866565b61018c610187366004611454565b610a2a565b60408051931515845291151560208401529082015260600161010b565b6100e76101b73660046113dd565b610aa1565b61011d610bc5565b6100e76101d236600461134c565b610bda565b6000546101ea906001600160a01b031681565b6040516001600160a01b03909116815260200161010b565b6100e7610210366004611490565b610eea565b61013e6102233660046113dd565b611122565b6000828152600260208190526040909120015482906001600160a01b0316331461026d5760405162461bcd60e51b8152600401610264906114de565b60405180910390fd5b8260008111801561027f575060015481105b61029b5760405162461bcd60e51b815260040161026490611529565b6000848152600260205260409020600581015460ff16156103245760405162461bcd60e51b815260206004820152603a60248201527f43616e6e6f74206164642063616e6469646174657320746f20616e206163746960448201527f766520656c656374696f6e2e20456e642069742066697273742e0000000000006064820152608401610264565b60008451116103755760405162461bcd60e51b815260206004820152601e60248201527f43616e646964617465206e616d652063616e6e6f7420626520656d70747900006044820152606401610264565b60068101805490600061038783611576565b9091555050604080516060810182526006830154808252602080830188815260008486018190529283526008860190915292902081518155915190919060018201906103d39082611618565b50604082015181600201559050508060060154857fed8911b3df733b7d5f75724158e54478ea12e30f49c9d31b5261879f5b76586f8660405161041691906116d8565b60405180910390a35050505050565b6000606060008460008111801561043d575060015481105b6104595760405162461bcd60e51b815260040161026490611529565b6000868152600260205260409020851580159061047a575080600601548611155b6104965760405162461bcd60e51b8152600401610264906116f2565b600086815260088201602052604090208054600282015460018301805490919082906104c19061158f565b80601f01602080910402602001604051908101604052809291908181526020018280546104ed9061158f565b801561053a5780601f1061050f5761010080835404028352916020019161053a565b820191906000526020600020905b81548152906001019060200180831161051d57829003601f168201915b505050505091509550955095505050509250925092565b600260205260009081526040902080546001820180549192916105739061158f565b80601f016020809104026020016040519081016040528092919081815260200182805461059f9061158f565b80156105ec5780601f106105c1576101008083540402835291602001916105ec565b820191906000526020600020905b8154815290600101906020018083116105cf57829003601f168201915b5050506002840154600385015460048601546005870154600688015460079098015496976001600160a01b039094169692955090935060ff80821693610100909204169189565b6000818152600260208190526040909120015481906001600160a01b0316331461066f5760405162461bcd60e51b8152600401610264906114de565b81600081118015610681575060015481105b61069d5760405162461bcd60e51b815260040161026490611529565b6000838152600260205260409020600581015460ff16156107005760405162461bcd60e51b815260206004820152601a60248201527f456c656374696f6e20697320616c7265616479206163746976650000000000006044820152606401610264565b6005810154610100900460ff161561075a5760405162461bcd60e51b815260206004820152601d60248201527f456c656374696f6e20697320616c726561647920636f6d706c657465640000006044820152606401610264565b806004015442106107ad5760405162461bcd60e51b815260206004820152601c60248201527f456c656374696f6e20656e642074696d652068617320706173736564000000006044820152606401610264565b80600301544210156108115760405162461bcd60e51b815260206004820152602760248201527f456c656374696f6e20686173206e6f74207265616368656420737461727420746044820152661a5b59481e595d60ca1b6064820152608401610264565b60058101805460ff1916600190811790915560405185917fd07171239a918b6e1e79c285bfc84a7c9a7a69bd51d76353e9543ff4cbba8ecd91610858918501904290611738565b60405180910390a250505050565b6000828152600260208190526040909120015482906001600160a01b031633146108a25760405162461bcd60e51b8152600401610264906114de565b826000811180156108b4575060015481105b6108d05760405162461bcd60e51b815260040161026490611529565b6000848152600260205260409020600581015460ff16156109595760405162461bcd60e51b815260206004820152603d60248201527f43616e6e6f7420617574686f72697a6520766f7465727320666f7220616e206160448201527f637469766520656c656374696f6e2e20456e642069742066697273742e0000006064820152608401610264565b6001600160a01b038416600090815260098201602052604090205460ff16156109d75760405162461bcd60e51b815260206004820152602a60248201527f566f74657220616c726561647920617574686f72697a656420666f7220746869604482015269399032b632b1ba34b7b760b11b6064820152608401610264565b6001600160a01b0384166000818152600983016020526040808220805460ff191660011790555187917f3472268c878450e0a658ae0f35954d9f22e16ae6e92cf9322237f8e6a50d982191a35050505050565b600080600084600081118015610a41575060015481105b610a5d5760405162461bcd60e51b815260040161026490611529565b5050506000928352506002602090815260408084206001600160a01b03939093168452600990920190529020805460019091015460ff808316936101009093041691565b6000818152600260208190526040909120015481906001600160a01b03163314610add5760405162461bcd60e51b8152600401610264906114de565b81600081118015610aef575060015481105b610b0b5760405162461bcd60e51b815260040161026490611529565b6000838152600260205260409020600581015460ff16610b7d5760405162461bcd60e51b815260206004820152602760248201527f456c656374696f6e206973206e6f7420616374697665206f7220616c726561646044820152661e48195b99195960ca1b6064820152608401610264565b60058101805461ffff191661010017905560405184907f768f23cc1edb48955299fa848c47d3fdebf8c6c78b4136045ba193ebad23fb8d906108589060018501904290611738565b600060018054610bd591906117cc565b905090565b81600081118015610bec575060015481105b610c085760405162461bcd60e51b815260040161026490611529565b600083815260026020526040902060050154839060ff161515600114610c7f5760405162461bcd60e51b815260206004820152602660248201527f566f74696e67206973206e6f742061637469766520666f72207468697320656c60448201526532b1ba34b7b760d11b6064820152608401610264565b600081815260026020526040902060030154421015610ce05760405162461bcd60e51b815260206004820152601a60248201527f566f74696e6720686173206e6f742073746172746564207965740000000000006044820152606401610264565b600081815260026020526040902060040154421115610d415760405162461bcd60e51b815260206004820152601860248201527f566f74696e672068617320616c726561647920656e64656400000000000000006044820152606401610264565b6000848152600260209081526040808320338452600981019092529091205460ff16610dbf5760405162461bcd60e51b815260206004820152602760248201527f4e6f7420617574686f72697a656420746f20766f746520696e207468697320656044820152663632b1ba34b7b760c91b6064820152608401610264565b336000908152600982016020526040902054610100900460ff1615610e265760405162461bcd60e51b815260206004820152601e60248201527f416c726561647920766f74656420696e207468697320656c656374696f6e00006044820152606401610264565b600084118015610e3a575080600601548411155b610e565760405162461bcd60e51b8152600401610264906116f2565b3360009081526009820160209081526040808320805461ff001916610100178155600101879055868352600884019091528120600201805491610e9883611576565b9091555050600781018054906000610eaf83611576565b90915550506040518490339087907f1abe610cf2bf87e57dcc1181fcf5ac0934e843d8344ab9eed6e86c799f62585e90600090a45050505050565b6000546001600160a01b03163314610f5b5760405162461bcd60e51b815260206004820152602e60248201527f4f6e6c7920636f6e7472616374206465706c6f7965722063616e20706572666f60448201526d3936903a3434b99030b1ba34b7b760911b6064820152608401610264565b6000835111610fac5760405162461bcd60e51b815260206004820152601d60248201527f456c656374696f6e206e616d652063616e6e6f7420626520656d7074790000006044820152606401610264565b42821015610ffc5760405162461bcd60e51b815260206004820181905260248201527f53746172742074696d652063616e6e6f7420626520696e2074686520706173746044820152606401610264565b8181116110555760405162461bcd60e51b815260206004820152602160248201527f456e642074696d65206d7573742062652061667465722073746172742074696d6044820152606560f81b6064820152608401610264565b6001805460008181526002602052604090208181559091016110778582611618565b506000818152600260208190526040822090810180546001600160a01b03191633179055600381018590556004810184905560058101805461ffff191690556006810182905560070181905560018054916110d183611576565b9190505550336001600160a01b0316817fa5e02149a4075d8d4d589c9f35c661b296060ca0c8b64e0c8564728f92368672868686604051611114939291906117e5565b60405180910390a350505050565b60006060600080600080600080600089600081118015611143575060015481105b61115f5760405162461bcd60e51b815260040161026490611529565b60008b81526002602081905260409091208054918101546003820154600483015460058401546006850154600786015460018701805497989790966001600160a01b031695949360ff808216946101009092041692909188906111c19061158f565b80601f01602080910402602001604051908101604052809291908181526020018280546111ed9061158f565b801561123a5780601f1061120f5761010080835404028352916020019161123a565b820191906000526020600020905b81548152906001019060200180831161121d57829003601f168201915b505050505097509a509a509a509a509a509a509a509a509a5050509193959799909294969850565b634e487b7160e01b600052604160045260246000fd5b600082601f83011261128957600080fd5b813567ffffffffffffffff808211156112a4576112a4611262565b604051601f8301601f19908116603f011681019082821181831017156112cc576112cc611262565b816040528381528660208588010111156112e557600080fd5b836020870160208301376000602085830101528094505050505092915050565b6000806040838503121561131857600080fd5b82359150602083013567ffffffffffffffff81111561133657600080fd5b61134285828601611278565b9150509250929050565b6000806040838503121561135f57600080fd5b50508035926020909101359150565b6000815180845260005b8181101561139457602081850181015186830182015201611378565b506000602082860101526020601f19601f83011685010191505092915050565b8381526060602082015260006113cd606083018561136e565b9050826040830152949350505050565b6000602082840312156113ef57600080fd5b5035919050565b60006101208b83528060208401526114108184018c61136e565b6001600160a01b039a909a16604084015250506060810196909652608086019490945291151560a0850152151560c084015260e08301526101009091015292915050565b6000806040838503121561146757600080fd5b8235915060208301356001600160a01b038116811461148557600080fd5b809150509250929050565b6000806000606084860312156114a557600080fd5b833567ffffffffffffffff8111156114bc57600080fd5b6114c886828701611278565b9660208601359650604090950135949350505050565b6020808252602b908201527f4f6e6c7920656c656374696f6e2061646d696e2063616e20706572666f726d2060408201526a3a3434b99030b1ba34b7b760a91b606082015260800190565b60208082526017908201527f456c656374696f6e20646f6573206e6f74206578697374000000000000000000604082015260600190565b634e487b7160e01b600052601160045260246000fd5b60006001820161158857611588611560565b5060010190565b600181811c908216806115a357607f821691505b6020821081036115c357634e487b7160e01b600052602260045260246000fd5b50919050565b601f82111561161357600081815260208120601f850160051c810160208610156115f05750805b601f850160051c820191505b8181101561160f578281556001016115fc565b5050505b505050565b815167ffffffffffffffff81111561163257611632611262565b61164681611640845461158f565b846115c9565b602080601f83116001811461167b57600084156116635750858301515b600019600386901b1c1916600185901b17855561160f565b600085815260208120601f198616915b828110156116aa5788860151825594840194600190910190840161168b565b50858210156116c85787850151600019600388901b60f8161c191681555b5050505050600190811b01905550565b6020815260006116eb602083018461136e565b9392505050565b60208082526026908201527f496e76616c69642063616e64696461746520494420666f72207468697320656c60408201526532b1ba34b7b760d11b606082015260800190565b60408152600080845461174a8161158f565b806040860152606060018084166000811461176c5760018114611786576117b7565b60ff1985168884015283151560051b8801830195506117b7565b8960005260208060002060005b868110156117ae5781548b8201870152908401908201611793565b8a018501975050505b50505050506020929092019290925292915050565b818103818111156117df576117df611560565b92915050565b6060815260006117f8606083018661136e565b6020830194909452506040015291905056fea26469706673582212203f2b727b71c71ffbc9bc5b1a9ecf551f369d39a4fe7e486a611acd4cb629029c64736f6c63430008150033",
  "linkReferences": {},
  "deployedLinkReferences": {}
}