{
  "_format": "hh-sol-artifact-1",
  "contractName": "votingContract",
  "sourceName": "contracts/votingContract.sol",
  "abi": [
    {
      "inputs": [],
      "stateMutability": "nonpayable",
      "type": "constructor"
    },
    {
      "anonymous": false,
      "inputs": [
        {
          "indexed": true,
          "internalType": "uint256",
          "name": "electionId",
          "type": "uint256"
        },
        {
          "indexed": true,
          "internalType": "uint256",
          "name": "candidateId",
          "type": "uint256"
        },
        {
          "indexed": false,
          "internalType": "string",
          "name": "name",
          "type": "string"
        }
      ],
      "name": "CandidateAdded",
      "type": "event"
    },
    {
      "anonymous": false,
      "inputs": [
        {
          "indexed": true,
          "internalType": "uint256",
          "name": "electionId",
          "type": "uint256"
        },
        {
          "indexed": true,
          "internalType": "uint256",
          "name": "candidateId",
          "type": "uint256"
        },
        {
          "indexed": false,
          "internalType": "string",
          "name": "candidateName",
          "type": "string"
        }
      ],
      "name": "CandidateRemoved",
      "type": "event"
    },
    {
      "anonymous": false,
      "inputs": [
        {
          "indexed": true,
          "internalType": "uint256",
          "name": "electionId",
          "type": "uint256"
        },
        {
          "indexed": false,
          "internalType": "string",
          "name": "name",
          "type": "string"
        },
        {
          "indexed": true,
          "internalType": "address",
          "name": "admin",
          "type": "address"
        },
        {
          "indexed": false,
          "internalType": "uint256",
          "name": "startTime",
          "type": "uint256"
        },
        {
          "indexed": false,
          "internalType": "uint256",
          "name": "endTime",
          "type": "uint256"
        }
      ],
      "name": "ElectionCreated",
      "type": "event"
    },
    {
      "anonymous": false,
      "inputs": [
        {
          "indexed": true,
          "internalType": "uint256",
          "name": "electionId",
          "type": "uint256"
        },
        {
          "indexed": false,
          "internalType": "string",
          "name": "name",
          "type": "string"
        },
        {
          "indexed": false,
          "internalType": "uint256",
          "name": "timestamp",
          "type": "uint256"
        }
      ],
      "name": "ElectionEnded",
      "type": "event"
    },
    {
      "anonymous": false,
      "inputs": [
        {
          "indexed": true,
          "internalType": "uint256",
          "name": "electionId",
          "type": "uint256"
        },
        {
          "indexed": false,
          "internalType": "string",
          "name": "name",
          "type": "string"
        },
        {
          "indexed": false,
          "internalType": "uint256",
          "name": "timestamp",
          "type": "uint256"
        }
      ],
      "name": "ElectionStarted",
      "type": "event"
    },
    {
      "anonymous": false,
      "inputs": [
        {
          "indexed": true,
          "internalType": "uint256",
          "name": "electionId",
          "type": "uint256"
        },
        {
          "indexed": true,
          "internalType": "address",
          "name": "voterAddress",
          "type": "address"
        },
        {
          "indexed": true,
          "internalType": "uint256",
          "name": "candidateId",
          "type": "uint256"
        }
      ],
      "name": "Voted",
      "type": "event"
    },
    {
      "anonymous": false,
      "inputs": [
        {
          "indexed": true,
          "internalType": "uint256",
          "name": "electionId",
          "type": "uint256"
        },
        {
          "indexed": true,
          "internalType": "address",
          "name": "voterAddress",
          "type": "address"
        }
      ],
      "name": "VoterAuthorized",
      "type": "event"
    },
    {
      "inputs": [
        {
          "internalType": "uint256",
          "name": "_electionId",
          "type": "uint256"
        },
        {
          "internalType": "string",
          "name": "_name",
          "type": "string"
        }
      ],
      "name": "addCandidate",
      "outputs": [],
      "stateMutability": "nonpayable",
      "type": "function"
    },
    {
      "inputs": [
        {
          "internalType": "uint256",
          "name": "_electionId",
          "type": "uint256"
        },
        {
          "internalType": "address",
          "name": "_voterAddress",
          "type": "address"
        }
      ],
      "name": "authorizeVoter",
      "outputs": [],
      "stateMutability": "nonpayable",
      "type": "function"
    },
    {
      "inputs": [
        {
          "internalType": "string",
          "name": "_name",
          "type": "string"
        },
        {
          "internalType": "uint256",
          "name": "_startTime",
          "type": "uint256"
        },
        {
          "internalType": "uint256",
          "name": "_endTime",
          "type": "uint256"
        }
      ],
      "name": "createElection",
      "outputs": [],
      "stateMutability": "nonpayable",
      "type": "function"
    },
    {
      "inputs": [],
      "name": "deployer",
      "outputs": [
        {
          "internalType": "address",
          "name": "",
          "type": "address"
        }
      ],
      "stateMutability": "view",
      "type": "function"
    },
    {
      "inputs": [
        {
          "internalType": "uint256",
          "name": "",
          "type": "uint256"
        }
      ],
      "name": "elections",
      "outputs": [
        {
          "internalType": "uint256",
          "name": "id",
          "type": "uint256"
        },
        {
          "internalType": "string",
          "name": "name",
          "type": "string"
        },
        {
          "internalType": "address",
          "name": "admin",
          "type": "address"
        },
        {
          "internalType": "uint256",
          "name": "startTime",
          "type": "uint256"
        },
        {
          "internalType": "uint256",
          "name": "endTime",
          "type": "uint256"
        },
        {
          "internalType": "bool",
          "name": "isActive",
          "type": "bool"
        },
        {
          "internalType": "bool",
          "name": "isCompleted",
          "type": "bool"
        },
        {
          "internalType": "uint256",
          "name": "candidatesCount",
          "type": "uint256"
        },
        {
          "internalType": "uint256",
          "name": "totalVotesCast",
          "type": "uint256"
        }
      ],
      "stateMutability": "view",
      "type": "function"
    },
    {
      "inputs": [
        {
          "internalType": "uint256",
          "name": "_electionId",
          "type": "uint256"
        }
      ],
      "name": "endElection",
      "outputs": [],
      "stateMutability": "nonpayable",
      "type": "function"
    },
    {
      "inputs": [
        {
          "internalType": "uint256",
          "name": "_electionId",
          "type": "uint256"
        },
        {
          "internalType": "uint256",
          "name": "_candidateId",
          "type": "uint256"
        }
      ],
      "name": "getCandidate",
      "outputs": [
        {
          "internalType": "uint256",
          "name": "id",
          "type": "uint256"
        },
        {
          "internalType": "string",
          "name": "name",
          "type": "string"
        },
        {
          "internalType": "uint256",
          "name": "voteCount",
          "type": "uint256"
        },
        {
          "internalType": "bool",
          "name": "exists",
          "type": "bool"
        }
      ],
      "stateMutability": "view",
      "type": "function"
    },
    {
      "inputs": [
        {
          "internalType": "uint256",
          "name": "_electionId",
          "type": "uint256"
        }
      ],
      "name": "getElectionCandidateIds",
      "outputs": [
        {
          "internalType": "uint256[]",
          "name": "",
          "type": "uint256[]"
        }
      ],
      "stateMutability": "view",
      "type": "function"
    },
    {
      "inputs": [
        {
          "internalType": "uint256",
          "name": "_electionId",
          "type": "uint256"
        }
      ],
      "name": "getElectionDetails",
      "outputs": [
        {
          "internalType": "uint256",
          "name": "id",
          "type": "uint256"
        },
        {
          "internalType": "string",
          "name": "name",
          "type": "string"
        },
        {
          "internalType": "address",
          "name": "adminAddr",
          "type": "address"
        },
        {
          "internalType": "uint256",
          "name": "startTime",
          "type": "uint256"
        },
        {
          "internalType": "uint256",
          "name": "endTime",
          "type": "uint256"
        },
        {
          "internalType": "bool",
          "name": "isActive",
          "type": "bool"
        },
        {
          "internalType": "bool",
          "name": "isCompleted",
          "type": "bool"
        },
        {
          "internalType": "uint256",
          "name": "candidatesCount",
          "type": "uint256"
        },
        {
          "internalType": "uint256",
          "name": "totalVotesCast",
          "type": "uint256"
        }
      ],
      "stateMutability": "view",
      "type": "function"
    },
    {
      "inputs": [],
      "name": "getElectionsCount",
      "outputs": [
        {
          "internalType": "uint256",
          "name": "",
          "type": "uint256"
        }
      ],
      "stateMutability": "view",
      "type": "function"
    },
    {
      "inputs": [
        {
          "internalType": "uint256",
          "name": "_electionId",
          "type": "uint256"
        },
        {
          "internalType": "address",
          "name": "_voterAddress",
          "type": "address"
        }
      ],
      "name": "getVoter",
      "outputs": [
        {
          "internalType": "bool",
          "name": "authorized",
          "type": "bool"
        },
        {
          "internalType": "bool",
          "name": "voted",
          "type": "bool"
        },
        {
          "internalType": "uint256",
          "name": "candidateIdVotedFor",
          "type": "uint256"
        }
      ],
      "stateMutability": "view",
      "type": "function"
    },
    {
      "inputs": [],
      "name": "nextElectionId",
      "outputs": [
        {
          "internalType": "uint256",
          "name": "",
          "type": "uint256"
        }
      ],
      "stateMutability": "view",
      "type": "function"
    },
    {
      "inputs": [
        {
          "internalType": "uint256",
          "name": "_electionId",
          "type": "uint256"
        },
        {
          "internalType": "uint256",
          "name": "_candidateId",
          "type": "uint256"
        }
      ],
      "name": "removeCandidate",
      "outputs": [],
      "stateMutability": "nonpayable",
      "type": "function"
    },
    {
      "inputs": [
        {
          "internalType": "uint256",
          "name": "_electionId",
          "type": "uint256"
        }
      ],
      "name": "startElection",
      "outputs": [],
      "stateMutability": "nonpayable",
      "type": "function"
    },
    {
      "inputs": [
        {
          "internalType": "uint256",
          "name": "_electionId",
          "type": "uint256"
        },
        {
          "internalType": "uint256",
          "name": "_candidateId",
          "type": "uint256"
        }
      ],
      "name": "vote",
      "outputs": [],
      "stateMutability": "nonpayable",
      "type": "function"
    }
  ],
  "bytecode": "0x608060405234801561001057600080fd5b50600080546001600160a01b0319163317905560018055611e60806100366000396000f3fe608060405234801561001057600080fd5b50600436106100f55760003560e01c80638f47b14611610097578063d5f3948811610066578063d5f394881461021e578063f49a7a1714610249578063f60499241461025c578063fa901afa1461026f57600080fd5b80638f47b146146101c05780639c98bcbb146101f0578063b1bb6ec314610203578063b384abef1461020b57600080fd5b80635313837b116100d35780635313837b1461015b5780635e6fef01146101725780636d32dc4b1461019a578063874a72c1146101ad57600080fd5b80631750a3d0146100fa57806330f31fde1461010f5780634bd4644814610138575b600080fd5b61010d6101083660046118b3565b610282565b005b61012261011d3660046118fa565b6104b8565b60405161012f9190611913565b60405180910390f35b61014b610146366004611957565b610553565b60405161012f94939291906119bf565b61016460015481565b60405190815260200161012f565b6101856101803660046118fa565b61068d565b60405161012f999897969594939291906119f0565b61010d6101a83660046118fa565b61076f565b61010d6101bb366004611a4e565b6109a2565b6101d36101ce366004611a4e565b610b66565b60408051931515845291151560208401529082015260600161012f565b61010d6101fe3660046118fa565b610bdd565b610164610d01565b61010d610219366004611957565b610d16565b600054610231906001600160a01b031681565b6040516001600160a01b03909116815260200161012f565b61010d610257366004611a8a565b61109f565b61018561026a3660046118fa565b6112d7565b61010d61027d366004611957565b611417565b6000828152600260208190526040909120015482906001600160a01b031633146102c75760405162461bcd60e51b81526004016102be90611ad8565b60405180910390fd5b826000811180156102d9575060015481105b6102f55760405162461bcd60e51b81526004016102be90611b23565b6000848152600260205260409020600581015460ff161561037e5760405162461bcd60e51b815260206004820152603a60248201527f43616e6e6f74206164642063616e6469646174657320746f20616e206163746960448201527f766520656c656374696f6e2e20456e642069742066697273742e00000000000060648201526084016102be565b60008451116103cf5760405162461bcd60e51b815260206004820152601e60248201527f43616e646964617465206e616d652063616e6e6f7420626520656d707479000060448201526064016102be565b6006810180549060006103e183611b70565b9091555050600681015460408051608081018252828152602080820188815260008385018190526001606085018190528682526008880190935293909320825181559251919291908201906104369082611c0c565b5060408281015160028301556060909201516003909101805460ff1916911515919091179055600983018054600181018255600091825260209091200182905551819087907fed8911b3df733b7d5f75724158e54478ea12e30f49c9d31b5261879f5b76586f906104a8908990611ccc565b60405180910390a3505050505050565b6060816000811180156104cc575060015481105b6104e85760405162461bcd60e51b81526004016102be90611b23565b60008381526002602090815260409182902060098101805484518185028101850190955280855291939290919083018282801561054457602002820191906000526020600020905b815481526020019060010190808311610530575b50505050509250505b50919050565b600060606000808560008111801561056c575060015481105b6105885760405162461bcd60e51b81526004016102be90611b23565b600087815260026020526040902086158015906105a9575080600601548711155b6105c55760405162461bcd60e51b81526004016102be90611ce6565b6000878152600882016020526040902080546002820154600383015460018401805490929160ff169083906105f990611b89565b80601f016020809104026020016040519081016040528092919081815260200182805461062590611b89565b80156106725780601f1061064757610100808354040283529160200191610672565b820191906000526020600020905b81548152906001019060200180831161065557829003601f168201915b50505050509250965096509650965050505092959194509250565b600260205260009081526040902080546001820180549192916106af90611b89565b80601f01602080910402602001604051908101604052809291908181526020018280546106db90611b89565b80156107285780601f106106fd57610100808354040283529160200191610728565b820191906000526020600020905b81548152906001019060200180831161070b57829003601f168201915b5050506002840154600385015460048601546005870154600688015460079098015496976001600160a01b039094169692955090935060ff80821693610100909204169189565b6000818152600260208190526040909120015481906001600160a01b031633146107ab5760405162461bcd60e51b81526004016102be90611ad8565b816000811180156107bd575060015481105b6107d95760405162461bcd60e51b81526004016102be90611b23565b6000838152600260205260409020600581015460ff161561083c5760405162461bcd60e51b815260206004820152601a60248201527f456c656374696f6e20697320616c72656164792061637469766500000000000060448201526064016102be565b6005810154610100900460ff16156108965760405162461bcd60e51b815260206004820152601d60248201527f456c656374696f6e20697320616c726561647920636f6d706c6574656400000060448201526064016102be565b806004015442106108e95760405162461bcd60e51b815260206004820152601c60248201527f456c656374696f6e20656e642074696d6520686173207061737365640000000060448201526064016102be565b806003015442101561094d5760405162461bcd60e51b815260206004820152602760248201527f456c656374696f6e20686173206e6f74207265616368656420737461727420746044820152661a5b59481e595d60ca1b60648201526084016102be565b60058101805460ff1916600190811790915560405185917fd07171239a918b6e1e79c285bfc84a7c9a7a69bd51d76353e9543ff4cbba8ecd91610994918501904290611d2c565b60405180910390a250505050565b6000828152600260208190526040909120015482906001600160a01b031633146109de5760405162461bcd60e51b81526004016102be90611ad8565b826000811180156109f0575060015481105b610a0c5760405162461bcd60e51b81526004016102be90611b23565b6000848152600260205260409020600581015460ff1615610a955760405162461bcd60e51b815260206004820152603d60248201527f43616e6e6f7420617574686f72697a6520766f7465727320666f7220616e206160448201527f637469766520656c656374696f6e2e20456e642069742066697273742e00000060648201526084016102be565b6001600160a01b0384166000908152600a8201602052604090205460ff1615610b135760405162461bcd60e51b815260206004820152602a60248201527f566f74657220616c726561647920617574686f72697a656420666f7220746869604482015269399032b632b1ba34b7b760b11b60648201526084016102be565b6001600160a01b0384166000818152600a83016020526040808220805460ff191660011790555187917f3472268c878450e0a658ae0f35954d9f22e16ae6e92cf9322237f8e6a50d982191a35050505050565b600080600084600081118015610b7d575060015481105b610b995760405162461bcd60e51b81526004016102be90611b23565b5050506000928352506002602090815260408084206001600160a01b03939093168452600a90920190529020805460019091015460ff808316936101009093041691565b6000818152600260208190526040909120015481906001600160a01b03163314610c195760405162461bcd60e51b81526004016102be90611ad8565b81600081118015610c2b575060015481105b610c475760405162461bcd60e51b81526004016102be90611b23565b6000838152600260205260409020600581015460ff16610cb95760405162461bcd60e51b815260206004820152602760248201527f456c656374696f6e206973206e6f7420616374697665206f7220616c726561646044820152661e48195b99195960ca1b60648201526084016102be565b60058101805461ffff191661010017905560405184907f768f23cc1edb48955299fa848c47d3fdebf8c6c78b4136045ba193ebad23fb8d906109949060018501904290611d2c565b600060018054610d119190611dc0565b905090565b81600081118015610d28575060015481105b610d445760405162461bcd60e51b81526004016102be90611b23565b600083815260026020526040902060050154839060ff161515600114610dbb5760405162461bcd60e51b815260206004820152602660248201527f566f74696e67206973206e6f742061637469766520666f72207468697320656c60448201526532b1ba34b7b760d11b60648201526084016102be565b600081815260026020526040902060030154421015610e1c5760405162461bcd60e51b815260206004820152601a60248201527f566f74696e6720686173206e6f7420737461727465642079657400000000000060448201526064016102be565b600081815260026020526040902060040154421115610e7d5760405162461bcd60e51b815260206004820152601860248201527f566f74696e672068617320616c726561647920656e646564000000000000000060448201526064016102be565b6000848152600260209081526040808320338452600a81019092529091205460ff16610efb5760405162461bcd60e51b815260206004820152602760248201527f4e6f7420617574686f72697a656420746f20766f746520696e207468697320656044820152663632b1ba34b7b760c91b60648201526084016102be565b336000908152600a82016020526040902054610100900460ff1615610f625760405162461bcd60e51b815260206004820152601e60248201527f416c726561647920766f74656420696e207468697320656c656374696f6e000060448201526064016102be565b600084118015610f76575080600601548411155b610f925760405162461bcd60e51b81526004016102be90611ce6565b600084815260088201602052604090206003015460ff1661100b5760405162461bcd60e51b815260206004820152602d60248201527f43616e64696461746520646f6573206e6f74206578697374206f72206861732060448201526c3132b2b7103932b6b7bb32b21760991b60648201526084016102be565b336000908152600a820160209081526040808320805461ff00191661010017815560010187905586835260088401909152812060020180549161104d83611b70565b909155505060078101805490600061106483611b70565b90915550506040518490339087907f1abe610cf2bf87e57dcc1181fcf5ac0934e843d8344ab9eed6e86c799f62585e90600090a45050505050565b6000546001600160a01b031633146111105760405162461bcd60e51b815260206004820152602e60248201527f4f6e6c7920636f6e7472616374206465706c6f7965722063616e20706572666f60448201526d3936903a3434b99030b1ba34b7b760911b60648201526084016102be565b60008351116111615760405162461bcd60e51b815260206004820152601d60248201527f456c656374696f6e206e616d652063616e6e6f7420626520656d70747900000060448201526064016102be565b428210156111b15760405162461bcd60e51b815260206004820181905260248201527f53746172742074696d652063616e6e6f7420626520696e20746865207061737460448201526064016102be565b81811161120a5760405162461bcd60e51b815260206004820152602160248201527f456e642074696d65206d7573742062652061667465722073746172742074696d6044820152606560f81b60648201526084016102be565b60018054600081815260026020526040902081815590910161122c8582611c0c565b506000818152600260208190526040822090810180546001600160a01b03191633179055600381018590556004810184905560058101805461ffff1916905560068101829055600701819055600180549161128683611b70565b9190505550336001600160a01b0316817fa5e02149a4075d8d4d589c9f35c661b296060ca0c8b64e0c8564728f923686728686866040516112c993929190611dd9565b60405180910390a350505050565b600060606000806000806000806000896000811180156112f8575060015481105b6113145760405162461bcd60e51b81526004016102be90611b23565b60008b81526002602081905260409091208054918101546003820154600483015460058401546006850154600786015460018701805497989790966001600160a01b031695949360ff8082169461010090920416929091889061137690611b89565b80601f01602080910402602001604051908101604052809291908181526020018280546113a290611b89565b80156113ef5780601f106113c4576101008083540402835291602001916113ef565b820191906000526020600020905b8154815290600101906020018083116113d257829003601f168201915b505050505097509a509a509a509a509a509a509a509a509a5050509193959799909294969850565b6000828152600260208190526040909120015482906001600160a01b031633146114535760405162461bcd60e51b81526004016102be90611ad8565b82600081118015611465575060015481105b6114815760405162461bcd60e51b81526004016102be90611b23565b6000848152600260205260409020600581015460ff161561150a5760405162461bcd60e51b815260206004820152603f60248201527f43616e6e6f742072656d6f76652063616e646964617465732066726f6d20616e60448201527f2061637469766520656c656374696f6e2e20456e642069742066697273742e0060648201526084016102be565b600084815260088201602052604090206003015460ff166115825760405162461bcd60e51b815260206004820152602c60248201527f43616e64696461746520646f6573206e6f74206578697374206f7220616c726560448201526b30b23c903932b6b7bb32b21760a11b60648201526084016102be565b836000036115ea5760405162461bcd60e51b815260206004820152602f60248201527f496e76616c69642063616e64696461746520494420284944203020697320726560448201526e39b2b93b32b217bab73ab9b2b2149760891b60648201526084016102be565b60008481526008820160205260408120600101805461160890611b89565b80601f016020809104026020016040519081016040528092919081815260200182805461163490611b89565b80156116815780601f1061165657610100808354040283529160200191611681565b820191906000526020600020905b81548152906001019060200180831161166457829003601f168201915b50505060008881526008860160205260408120600301805460ff191690559293508291508190505b60098501548110156116f957878560090182815481106116cb576116cb611dfe565b9060005260206000200154036116e757809250600191506116f9565b806116f181611b70565b9150506116a9565b50806117565760405162461bcd60e51b815260206004820152602660248201527f43616e646964617465204944206e6f7420666f756e6420696e20616374697665604482015265103634b9ba1760d11b60648201526084016102be565b60098401805461176890600190611dc0565b8154811061177857611778611dfe565b906000526020600020015484600901838154811061179857611798611dfe565b600091825260209091200155600984018054806117b7576117b7611e14565b6001900381819060005260206000200160009055905586887fc6a7fa5c3c69aa6762907413d05b1c1568efce466eb5b87e49b8e3d2adee48c2856040516117fe9190611ccc565b60405180910390a35050505050505050565b634e487b7160e01b600052604160045260246000fd5b600082601f83011261183757600080fd5b813567ffffffffffffffff8082111561185257611852611810565b604051601f8301601f19908116603f0116810190828211818310171561187a5761187a611810565b8160405283815286602085880101111561189357600080fd5b836020870160208301376000602085830101528094505050505092915050565b600080604083850312156118c657600080fd5b82359150602083013567ffffffffffffffff8111156118e457600080fd5b6118f085828601611826565b9150509250929050565b60006020828403121561190c57600080fd5b5035919050565b6020808252825182820181905260009190848201906040850190845b8181101561194b5783518352928401929184019160010161192f565b50909695505050505050565b6000806040838503121561196a57600080fd5b50508035926020909101359150565b6000815180845260005b8181101561199f57602081850181015186830182015201611983565b506000602082860101526020601f19601f83011685010191505092915050565b8481526080602082015260006119d86080830186611979565b60408301949094525090151560609091015292915050565b60006101208b8352806020840152611a0a8184018c611979565b6001600160a01b039a909a16604084015250506060810196909652608086019490945291151560a0850152151560c084015260e08301526101009091015292915050565b60008060408385031215611a6157600080fd5b8235915060208301356001600160a01b0381168114611a7f57600080fd5b809150509250929050565b600080600060608486031215611a9f57600080fd5b833567ffffffffffffffff811115611ab657600080fd5b611ac286828701611826565b9660208601359650604090950135949350505050565b6020808252602b908201527f4f6e6c7920656c656374696f6e2061646d696e2063616e20706572666f726d2060408201526a3a3434b99030b1ba34b7b760a91b606082015260800190565b60208082526017908201527f456c656374696f6e20646f6573206e6f74206578697374000000000000000000604082015260600190565b634e487b7160e01b600052601160045260246000fd5b600060018201611b8257611b82611b5a565b5060010190565b600181811c90821680611b9d57607f821691505b60208210810361054d57634e487b7160e01b600052602260045260246000fd5b601f821115611c0757600081815260208120601f850160051c81016020861015611be45750805b601f850160051c820191505b81811015611c0357828155600101611bf0565b5050505b505050565b815167ffffffffffffffff811115611c2657611c26611810565b611c3a81611c348454611b89565b84611bbd565b602080601f831160018114611c6f5760008415611c575750858301515b600019600386901b1c1916600185901b178555611c03565b600085815260208120601f198616915b82811015611c9e57888601518255948401946001909101908401611c7f565b5085821015611cbc5787850151600019600388901b60f8161c191681555b5050505050600190811b01905550565b602081526000611cdf6020830184611979565b9392505050565b60208082526026908201527f496e76616c69642063616e64696461746520494420666f72207468697320656c60408201526532b1ba34b7b760d11b606082015260800190565b604081526000808454611d3e81611b89565b8060408601526060600180841660008114611d605760018114611d7a57611dab565b60ff1985168884015283151560051b880183019550611dab565b8960005260208060002060005b86811015611da25781548b8201870152908401908201611d87565b8a018501975050505b50505050506020929092019290925292915050565b81810381811115611dd357611dd3611b5a565b92915050565b606081526000611dec6060830186611979565b60208301949094525060400152919050565b634e487b7160e01b600052603260045260246000fd5b634e487b7160e01b600052603160045260246000fdfea2646970667358221220289e1d70a9373c6a4750f776bad3669c54723ac87fcca3b1508b4241cf8cb81664736f6c63430008150033",
  "linkReferences": {},
  "deployedLinkReferences": {}
}