{
  "_format": "hh-sol-artifact-1",
  "contractName": "votingContract",
  "sourceName": "contracts/votingContract.sol",
  "abi": [
    {
      "inputs": [
        {
          "internalType": "string",
          "name": "_name",
          "type": "string"
        }
      ],
      "stateMutability": "nonpayable",
      "type": "constructor"
    },
    {
      "inputs": [
        {
          "internalType": "string",
          "name": "_name",
          "type": "string"
        }
      ],
      "name": "addCandidate",
      "outputs": [],
      "stateMutability": "nonpayable",
      "type": "function"
    },
    {
      "inputs": [],
      "name": "admin",
      "outputs": [
        {
          "internalType": "address",
          "name": "",
          "type": "address"
        }
      ],
      "stateMutability": "view",
      "type": "function"
    },
    {
      "inputs": [
        {
          "internalType": "address",
          "name": "_voter",
          "type": "address"
        }
      ],
      "name": "authorizeVoter",
      "outputs": [],
      "stateMutability": "nonpayable",
      "type": "function"
    },
    {
      "inputs": [
        {
          "internalType": "uint256",
          "name": "",
          "type": "uint256"
        }
      ],
      "name": "candidates",
      "outputs": [
        {
          "internalType": "uint256",
          "name": "id",
          "type": "uint256"
        },
        {
          "internalType": "string",
          "name": "name",
          "type": "string"
        },
        {
          "internalType": "uint256",
          "name": "voteCount",
          "type": "uint256"
        }
      ],
      "stateMutability": "view",
      "type": "function"
    },
    {
      "inputs": [],
      "name": "candidatesCount",
      "outputs": [
        {
          "internalType": "uint256",
          "name": "",
          "type": "uint256"
        }
      ],
      "stateMutability": "view",
      "type": "function"
    },
    {
      "inputs": [],
      "name": "electionName",
      "outputs": [
        {
          "internalType": "string",
          "name": "",
          "type": "string"
        }
      ],
      "stateMutability": "view",
      "type": "function"
    },
    {
      "inputs": [
        {
          "internalType": "uint256",
          "name": "_candidateId",
          "type": "uint256"
        }
      ],
      "name": "getCandidate",
      "outputs": [
        {
          "internalType": "uint256",
          "name": "",
          "type": "uint256"
        },
        {
          "internalType": "string",
          "name": "",
          "type": "string"
        },
        {
          "internalType": "uint256",
          "name": "",
          "type": "uint256"
        }
      ],
      "stateMutability": "view",
      "type": "function"
    },
    {
      "inputs": [],
      "name": "totalVotes",
      "outputs": [
        {
          "internalType": "uint256",
          "name": "",
          "type": "uint256"
        }
      ],
      "stateMutability": "view",
      "type": "function"
    },
    {
      "inputs": [
        {
          "internalType": "uint256",
          "name": "_candidateId",
          "type": "uint256"
        }
      ],
      "name": "vote",
      "outputs": [],
      "stateMutability": "nonpayable",
      "type": "function"
    },
    {
      "inputs": [
        {
          "internalType": "address",
          "name": "",
          "type": "address"
        }
      ],
      "name": "voters",
      "outputs": [
        {
          "internalType": "bool",
          "name": "authorized",
          "type": "bool"
        },
        {
          "internalType": "bool",
          "name": "voted",
          "type": "bool"
        },
        {
          "internalType": "uint256",
          "name": "vote",
          "type": "uint256"
        }
      ],
      "stateMutability": "view",
      "type": "function"
    }
  ],
  "bytecode": "0x60806040523480156200001157600080fd5b5060405162000caa38038062000caa833981016040819052620000349162000072565b600080546001600160a01b031916331790556001620000548282620001d6565b5050620002a2565b634e487b7160e01b600052604160045260246000fd5b600060208083850312156200008657600080fd5b82516001600160401b03808211156200009e57600080fd5b818501915085601f830112620000b357600080fd5b815181811115620000c857620000c86200005c565b604051601f8201601f19908116603f01168101908382118183101715620000f357620000f36200005c565b8160405282815288868487010111156200010c57600080fd5b600093505b8284101562000130578484018601518185018701529285019262000111565b600086848301015280965050505050505092915050565b600181811c908216806200015c57607f821691505b6020821081036200017d57634e487b7160e01b600052602260045260246000fd5b50919050565b601f821115620001d157600081815260208120601f850160051c81016020861015620001ac5750805b601f850160051c820191505b81811015620001cd57828155600101620001b8565b5050505b505050565b81516001600160401b03811115620001f257620001f26200005c565b6200020a8162000203845462000147565b8462000183565b602080601f831160018114620002425760008415620002295750858301515b600019600386901b1c1916600185901b178555620001cd565b600085815260208120601f198616915b82811015620002735788860151825594840194600190910190840162000252565b5085821015620002925787850151600019600388901b60f8161c191681555b5050505050600190811b01905550565b6109f880620002b26000396000f3fe608060405234801561001057600080fd5b506004361061009e5760003560e01c8063462e91ec11610066578063462e91ec1461011257806385e8e7a714610125578063a3ec138d1461013a578063f851a4401461018b578063fd47b368146101b657600080fd5b80630121b93f146100a35780630d15fd77146100b85780632d35a8a2146100d45780633477ee2e146100dd57806335b8e820146100ff575b600080fd5b6100b66100b136600461067e565b6101c9565b005b6100c160055481565b6040519081526020015b60405180910390f35b6100c160045481565b6100f06100eb36600461067e565b610329565b6040516100cb939291906106dd565b6100f061010d36600461067e565b6103d4565b6100b661012036600461071c565b61050f565b61012d6105a2565b6040516100cb91906107cd565b61016e6101483660046107e7565b6002602052600090815260409020805460019091015460ff808316926101009004169083565b6040805193151584529115156020840152908201526060016100cb565b60005461019e906001600160a01b031681565b6040516001600160a01b0390911681526020016100cb565b6100b66101c43660046107e7565b610630565b3360009081526002602052604090205460ff166102265760405162461bcd60e51b81526020600482015260166024820152754e6f7420617574686f72697a656420746f20766f746560501b60448201526064015b60405180910390fd5b33600090815260026020526040902054610100900460ff161561027b5760405162461bcd60e51b815260206004820152600d60248201526c105b1c9958591e481d9bdd1959609a1b604482015260640161021d565b60008111801561028d57506004548111155b6102d05760405162461bcd60e51b8152602060048201526014602482015273125b9d985b1a590818d85b991a59185d1948125160621b604482015260640161021d565b336000908152600260208181526040808420805461ff001916610100178155600101859055848452600390915282200180549161030c83610810565b90915550506005805490600061032183610810565b919050555050565b6003602052600090815260409020805460018201805491929161034b90610837565b80601f016020809104026020016040519081016040528092919081815260200182805461037790610837565b80156103c45780601f10610399576101008083540402835291602001916103c4565b820191906000526020600020905b8154815290600101906020018083116103a757829003601f168201915b5050505050908060020154905083565b60006060600080841180156103eb57506004548411155b61042e5760405162461bcd60e51b8152602060048201526014602482015273125b9d985b1a590818d85b991a59185d1948125160621b604482015260640161021d565b6000600360008681526020019081526020016000206040518060600160405290816000820154815260200160018201805461046890610837565b80601f016020809104026020016040519081016040528092919081815260200182805461049490610837565b80156104e15780601f106104b6576101008083540402835291602001916104e1565b820191906000526020600020905b8154815290600101906020018083116104c457829003601f168201915b5050509183525050600291909101546020918201528151908201516040909201519097919650945092505050565b6000546001600160a01b031633146105395760405162461bcd60e51b815260040161021d90610871565b6004805490600061054983610810565b90915550506040805160608101825260045480825260208083018581526000848601819052928352600390915292902081518155915190919060018201906105919082610902565b506040820151816002015590505050565b600180546105af90610837565b80601f01602080910402602001604051908101604052809291908181526020018280546105db90610837565b80156106285780601f106105fd57610100808354040283529160200191610628565b820191906000526020600020905b81548152906001019060200180831161060b57829003601f168201915b505050505081565b6000546001600160a01b0316331461065a5760405162461bcd60e51b815260040161021d90610871565b6001600160a01b03166000908152600260205260409020805460ff19166001179055565b60006020828403121561069057600080fd5b5035919050565b6000815180845260005b818110156106bd576020818501810151868301820152016106a1565b506000602082860101526020601f19601f83011685010191505092915050565b8381526060602082015260006106f66060830185610697565b9050826040830152949350505050565b634e487b7160e01b600052604160045260246000fd5b60006020828403121561072e57600080fd5b813567ffffffffffffffff8082111561074657600080fd5b818401915084601f83011261075a57600080fd5b81358181111561076c5761076c610706565b604051601f8201601f19908116603f0116810190838211818310171561079457610794610706565b816040528281528760208487010111156107ad57600080fd5b826020860160208301376000928101602001929092525095945050505050565b6020815260006107e06020830184610697565b9392505050565b6000602082840312156107f957600080fd5b81356001600160a01b03811681146107e057600080fd5b60006001820161083057634e487b7160e01b600052601160045260246000fd5b5060010190565b600181811c9082168061084b57607f821691505b60208210810361086b57634e487b7160e01b600052602260045260246000fd5b50919050565b60208082526022908201527f4f6e6c792061646d696e2063616e20706572666f726d2074686973206163746960408201526137b760f11b606082015260800190565b601f8211156108fd57600081815260208120601f850160051c810160208610156108da5750805b601f850160051c820191505b818110156108f9578281556001016108e6565b5050505b505050565b815167ffffffffffffffff81111561091c5761091c610706565b6109308161092a8454610837565b846108b3565b602080601f831160018114610965576000841561094d5750858301515b600019600386901b1c1916600185901b1785556108f9565b600085815260208120601f198616915b8281101561099457888601518255948401946001909101908401610975565b50858210156109b25787850151600019600388901b60f8161c191681555b5050505050600190811b0190555056fea264697066735822122096109c278c83eacb039de93796afb10a4e11939696be99473be60716eb1f914164736f6c63430008150033",
  "linkReferences": {},
  "deployedLinkReferences": {}
}